{"abi":[{"type":"function","name":"args","inputs":[],"outputs":[{"name":"","type":"bytes","internalType":"bytes"}],"stateMutability":"view"},{"type":"function","name":"binary_check","inputs":[],"outputs":[],"stateMutability":"nonpayable"},{"type":"function","name":"bytesToString","inputs":[{"name":"data","type":"bytes","internalType":"bytes"}],"outputs":[{"name":"","type":"string","internalType":"string"}],"stateMutability":"pure"},{"type":"function","name":"code","inputs":[],"outputs":[{"name":"","type":"string","internalType":"string"}],"stateMutability":"view"},{"type":"function","name":"const_overrides","inputs":[{"name":"","type":"uint256","internalType":"uint256"}],"outputs":[{"name":"key","type":"string","internalType":"string"},{"name":"value","type":"string","internalType":"string"}],"stateMutability":"view"},{"type":"function","name":"creation_code","inputs":[{"name":"file","type":"string","internalType":"string"}],"outputs":[{"name":"bytecode","type":"bytes","internalType":"bytes"}],"stateMutability":"payable"},{"type":"function","name":"creation_code_with_args","inputs":[{"name":"file","type":"string","internalType":"string"}],"outputs":[{"name":"bytecode","type":"bytes","internalType":"bytes"}],"stateMutability":"payable"},{"type":"function","name":"deploy","inputs":[{"name":"file","type":"string","internalType":"string"}],"outputs":[{"name":"","type":"address","internalType":"address"}],"stateMutability":"payable"},{"type":"function","name":"deployer","inputs":[],"outputs":[{"name":"","type":"address","internalType":"address"}],"stateMutability":"view"},{"type":"function","name":"evm_version","inputs":[],"outputs":[{"name":"","type":"string","internalType":"string"}],"stateMutability":"view"},{"type":"function","name":"get_evm_version","inputs":[],"outputs":[{"name":"","type":"string","internalType":"string"}],"stateMutability":"view"},{"type":"function","name":"set_broadcast","inputs":[{"name":"broadcast","type":"bool","internalType":"bool"}],"outputs":[{"name":"","type":"address","internalType":"contract HuffConfig"}],"stateMutability":"nonpayable"},{"type":"function","name":"should_broadcast","inputs":[],"outputs":[{"name":"","type":"bool","internalType":"bool"}],"stateMutability":"view"},{"type":"function","name":"value","inputs":[],"outputs":[{"name":"","type":"uint256","internalType":"uint256"}],"stateMutability":"view"},{"type":"function","name":"vm","inputs":[],"outputs":[{"name":"","type":"address","internalType":"contract Vm"}],"stateMutability":"view"},{"type":"function","name":"with_addr_constant","inputs":[{"name":"key","type":"string","internalType":"string"},{"name":"value_","type":"address","internalType":"address"}],"outputs":[{"name":"","type":"address","internalType":"contract HuffConfig"}],"stateMutability":"nonpayable"},{"type":"function","name":"with_args","inputs":[{"name":"args_","type":"bytes","internalType":"bytes"}],"outputs":[{"name":"","type":"address","internalType":"contract HuffConfig"}],"stateMutability":"nonpayable"},{"type":"function","name":"with_bytes32_constant","inputs":[{"name":"key","type":"string","internalType":"string"},{"name":"value_","type":"bytes32","internalType":"bytes32"}],"outputs":[{"name":"","type":"address","internalType":"contract HuffConfig"}],"stateMutability":"nonpayable"},{"type":"function","name":"with_code","inputs":[{"name":"code_","type":"string","internalType":"string"}],"outputs":[{"name":"","type":"address","internalType":"contract HuffConfig"}],"stateMutability":"nonpayable"},{"type":"function","name":"with_constant","inputs":[{"name":"key","type":"string","internalType":"string"},{"name":"value_","type":"string","internalType":"string"}],"outputs":[{"name":"","type":"address","internalType":"contract HuffConfig"}],"stateMutability":"nonpayable"},{"type":"function","name":"with_deployer","inputs":[{"name":"_deployer","type":"address","internalType":"address"}],"outputs":[{"name":"","type":"address","internalType":"contract HuffConfig"}],"stateMutability":"nonpayable"},{"type":"function","name":"with_evm_version","inputs":[{"name":"_evm_version","type":"string","internalType":"string"}],"outputs":[{"name":"","type":"address","internalType":"contract HuffConfig"}],"stateMutability":"nonpayable"},{"type":"function","name":"with_uint_constant","inputs":[{"name":"key","type":"string","internalType":"string"},{"name":"value_","type":"uint256","internalType":"uint256"}],"outputs":[{"name":"","type":"address","internalType":"contract HuffConfig"}],"stateMutability":"nonpayable"},{"type":"function","name":"with_value","inputs":[{"name":"value_","type":"uint256","internalType":"uint256"}],"outputs":[{"name":"","type":"address","internalType":"contract HuffConfig"}],"stateMutability":"nonpayable"}],"bytecode":{"object":"0x60806040523060035f6101000a81548173ffffffffffffffffffffffffffffffffffffffff021916908373ffffffffffffffffffffffffffffffffffffffff160217905550348015604e575f5ffd5b50613f7d8061005c5f395ff3fe60806040526004361061014a575f3560e01c80636b07af10116100b5578063c76023161161006e578063c7602316146104ef578063d5f394881461051f578063dd1ec82414610549578063df9f3dee14610573578063e5df3076146105af578063e9e68e1d146105eb5761014a565b80636b07af10146103ad5780636fcef9d5146103e95780637dc2225f146104255780638093a1b91461046157806392bb10d71461049d578063c5effd02146104d95761014a565b806328764d141161010757806328764d141461028d57806339614e4f146102c95780633a768463146103055780633fa4f2451461032f5780634e9b75b61461035957806368f192f2146103835761014a565b80630c7d16811461014e5780630cc766161461018b5780631a8f1a1c146101bb578063220481ef146101f75780632232d9081461022757806324c12bf614610263575b5f5ffd5b348015610159575f5ffd5b50610174600480360381019061016f91906126ff565b610615565b60405161018292919061279a565b60405180910390f35b6101a560048036038101906101a091906128fb565b610750565b6040516101b29190612994565b60405180910390f35b3480156101c6575f5ffd5b506101e160048036038101906101dc91906128fb565b610787565b6040516101ee9190612a2e565b60405180910390f35b610211600480360381019061020c91906128fb565b6107a0565b60405161021e9190612994565b60405180910390f35b348015610232575f5ffd5b5061024d600480360381019061024891906128fb565b6115b1565b60405161025a9190612a2e565b60405180910390f35b34801561026e575f5ffd5b506102776115c9565b6040516102849190612a47565b60405180910390f35b348015610298575f5ffd5b506102b360048036038101906102ae9190612b05565b611654565b6040516102c09190612a2e565b60405180910390f35b3480156102d4575f5ffd5b506102ef60048036038101906102ea9190612b05565b61166d565b6040516102fc9190612a47565b60405180910390f35b348015610310575f5ffd5b5061031961195c565b6040516103269190612b6c565b60405180910390f35b34801561033a575f5ffd5b50610343611988565b6040516103509190612b94565b60405180910390f35b348015610364575f5ffd5b5061036d61198e565b60405161037a9190612994565b60405180910390f35b34801561038e575f5ffd5b50610397611a1a565b6040516103a49190612a47565b60405180910390f35b3480156103b8575f5ffd5b506103d360048036038101906103ce9190612bad565b611aa6565b6040516103e09190612a2e565b60405180910390f35b3480156103f4575f5ffd5b5061040f600480360381019061040a9190612c42565b611b40565b60405161041c9190612a2e565b60405180910390f35b348015610430575f5ffd5b5061044b600480360381019061044691906126ff565b611bda565b6040516104589190612a2e565b60405180910390f35b34801561046c575f5ffd5b5061048760048036038101906104829190612c9c565b611bea565b6040516104949190612a2e565b60405180910390f35b3480156104a8575f5ffd5b506104c360048036038101906104be9190612d12565b611c5d565b6040516104d09190612a2e565b60405180910390f35b3480156104e4575f5ffd5b506104ed611ca6565b005b610509600480360381019061050491906128fb565b611ebb565b6040516105169190612d4c565b60405180910390f35b34801561052a575f5ffd5b50610533611fe8565b6040516105409190612d4c565b60405180910390f35b348015610554575f5ffd5b5061055d61200d565b60405161056a9190612a47565b60405180910390f35b34801561057e575f5ffd5b5061059960048036038101906105949190612d9a565b612113565b6040516105a69190612a2e565b60405180910390f35b3480156105ba575f5ffd5b506105d560048036038101906105d09190612df8565b612136565b6040516105e29190612a2e565b60405180910390f35b3480156105f6575f5ffd5b506105ff6121d0565b60405161060c9190612e61565b60405180910390f35b60058181548110610624575f80fd5b905f5260205f2090600202015f91509050805f01805461064390612ea7565b80601f016020809104026020016040519081016040528092919081815260200182805461066f90612ea7565b80156106ba5780601f10610691576101008083540402835291602001916106ba565b820191905f5260205f20905b81548152906001019060200180831161069d57829003601f168201915b5050505050908060010180546106cf90612ea7565b80601f01602080910402602001604051908101604052809291908181526020018280546106fb90612ea7565b80156107465780601f1061071d57610100808354040283529160200191610746565b820191905f5260205f20905b81548152906001019060200180831161072957829003601f168201915b5050505050905082565b606061075b826107a0565b9050806001604051602001610771929190612fa3565b6040516020818303038152906040529050919050565b5f8160049081610797919061315d565b50309050919050565b60606107aa611ca6565b5f6107b4836121e3565b90505f6107f56040518060400160405280600181526020017f2f000000000000000000000000000000000000000000000000000000000000008152506121e3565b90505f600161080d838561221090919063ffffffff16565b6108179190613259565b67ffffffffffffffff8111156108305761082f6127d7565b5b60405190808252806020026020018201604052801561086357816020015b606081526020019060019003908161084e5790505b5090505f5f90505b81518110156108ba5761088f61088a84866122b090919063ffffffff16565b6122ca565b8282815181106108a2576108a161328c565b5b6020026020010181905250808060010191505061086b565b505f600167ffffffffffffffff8111156108d7576108d66127d7565b5b60405190808252806020026020018201604052801561090a57816020015b60608152602001906001900390816108f55790505b509050604051806060016040528060288152602001613f2060289139815f815181106109395761093861328c565b5b60200260200101819052505f7f885cb69240a935d632d79c317109709ecfa91a80626ff3989d68f67f5b1dd12d5f1c60601b60601c73ffffffffffffffffffffffffffffffffffffffff166389160467836040518263ffffffff1660e01b81526004016109a691906133bc565b5f604051808303815f875af11580156109c1573d5f5f3e3d5ffd5b505050506040513d5f823e3d601f19601f820116820180604052508101906109e9919061344a565b90505f610a24826109f9906134b4565b604051602001610a099190613529565b60405160208183030381529060405280519060200120612342565b90505f845f81518110610a3a57610a3961328c565b5b602002602001015190506001855111610a76578181604051602001610a609291906135a2565b6040516020818303038152906040529050610b2b565b5f600190505b60018651610a8a91906135d4565b811015610adc5781868281518110610aa557610aa461328c565b5b6020026020010151604051602001610abe92919061362d565b60405160208183030381529060405291508080600101915050610a7c565b5080828660018851610aee91906135d4565b81518110610aff57610afe61328c565b5b6020026020010151604051602001610b199392919061365f565b60405160208183030381529060405290505b5f600367ffffffffffffffff811115610b4757610b466127d7565b5b604051908082528060200260200182016040528015610b7a57816020015b6060815260200190600190039081610b655790505b509050604051806060016040528060298152602001613eca60299139815f81518110610ba957610ba861328c565b5b602002602001018190525081604051602001610bc591906136f9565b60405160208183030381529060405281600181518110610be857610be761328c565b5b60200260200101819052505f604051602001610c0491906137d3565b60405160208183030381529060405281600281518110610c2757610c2661328c565b5b60200260200101819052507f885cb69240a935d632d79c317109709ecfa91a80626ff3989d68f67f5b1dd12d5f1c60601b60601c73ffffffffffffffffffffffffffffffffffffffff166389160467826040518263ffffffff1660e01b8152600401610c9391906133bc565b5f604051808303815f875af1158015610cae573d5f5f3e3d5ffd5b505050506040513d5f823e3d601f19601f82011682018060405250810190610cd6919061344a565b505f600367ffffffffffffffff811115610cf357610cf26127d7565b5b604051908082528060200260200182016040528015610d2657816020015b6060815260200190600190039081610d115790505b5090506040518060600160405280602d8152602001613ef3602d9139815f81518110610d5557610d5461328c565b5b602002602001018190525082604051602001610d7191906136f9565b60405160208183030381529060405281600181518110610d9457610d9361328c565b5b60200260200101819052508a604051602001610db091906136f9565b60405160208183030381529060405281600281518110610dd357610dd261328c565b5b60200260200101819052507f885cb69240a935d632d79c317109709ecfa91a80626ff3989d68f67f5b1dd12d5f1c60601b60601c73ffffffffffffffffffffffffffffffffffffffff166389160467826040518263ffffffff1660e01b8152600401610e3f91906133bc565b5f604051808303815f875af1158015610e5a573d5f5f3e3d5ffd5b505050506040513d5f823e3d601f19601f82011682018060405250810190610e82919061344a565b505f600567ffffffffffffffff811115610e9f57610e9e6127d7565b5b604051908082528060200260200182016040528015610ed257816020015b6060815260200190600190039081610ebd5790505b5090505f600580549050111561115e576005805490506006610ef49190613259565b67ffffffffffffffff811115610f0d57610f0c6127d7565b5b604051908082528060200260200182016040528015610f4057816020015b6060815260200190600190039081610f2b5790505b5090506040518060400160405280600281526020017f2d6300000000000000000000000000000000000000000000000000000000000081525081600581518110610f8d57610f8c61328c565b5b6020026020010181905250610fa0612689565b5f5b60058054905081101561115b5760058181548110610fc357610fc261328c565b5b905f5260205f2090600202016040518060400160405290815f82018054610fe990612ea7565b80601f016020809104026020016040519081016040528092919081815260200182805461101590612ea7565b80156110605780601f1061103757610100808354040283529160200191611060565b820191905f5260205f20905b81548152906001019060200180831161104357829003601f168201915b5050505050815260200160018201805461107990612ea7565b80601f01602080910402602001604051908101604052809291908181526020018280546110a590612ea7565b80156110f05780601f106110c7576101008083540402835291602001916110f0565b820191905f5260205f20905b8154815290600101906020018083116110d357829003601f168201915b5050505050815250509150815f0151826020015160405160200161111592919061381e565b604051602081830303815290604052838260066111329190613259565b815181106111435761114261328c565b5b60200260200101819052508080600101915050610fa2565b50505b6040518060400160405280600581526020017f6875666663000000000000000000000000000000000000000000000000000000815250815f815181106111a7576111a661328c565b5b6020026020010181905250836040516020016111c391906136f9565b604051602081830303815290604052816001815181106111e6576111e561328c565b5b60200260200101819052506040518060400160405280600281526020017f2d620000000000000000000000000000000000000000000000000000000000008152508160028151811061123b5761123a61328c565b5b60200260200101819052506040518060400160405280600281526020017f2d65000000000000000000000000000000000000000000000000000000000000815250816003815181106112905761128f61328c565b5b60200260200101819052506112a361200d565b816004815181106112b7576112b661328c565b5b60200260200101819052507f885cb69240a935d632d79c317109709ecfa91a80626ff3989d68f67f5b1dd12d5f1c60601b60601c73ffffffffffffffffffffffffffffffffffffffff166389160467826040518263ffffffff1660e01b815260040161132391906133bc565b5f604051808303815f875af115801561133e573d5f5f3e3d5ffd5b505050506040513d5f823e3d601f19601f82011682018060405250810190611366919061344a565b9a505f600267ffffffffffffffff811115611384576113836127d7565b5b6040519080825280602002602001820160405280156113b757816020015b60608152602001906001900390816113a25790505b5090506040518060400160405280600281526020017f726d000000000000000000000000000000000000000000000000000000000000815250815f815181106114035761140261328c565b5b60200260200101819052508460405160200161141f91906136f9565b604051602081830303815290604052816001815181106114425761144161328c565b5b60200260200101819052507f885cb69240a935d632d79c317109709ecfa91a80626ff3989d68f67f5b1dd12d5f1c60601b60601c73ffffffffffffffffffffffffffffffffffffffff1663ca669fa760035f9054906101000a900473ffffffffffffffffffffffffffffffffffffffff166040518263ffffffff1660e01b81526004016114cf9190612d4c565b5f604051808303815f87803b1580156114e6575f5ffd5b505af11580156114f8573d5f5f3e3d5ffd5b505050507f885cb69240a935d632d79c317109709ecfa91a80626ff3989d68f67f5b1dd12d5f1c60601b60601c73ffffffffffffffffffffffffffffffffffffffff166389160467826040518263ffffffff1660e01b815260040161155d91906133bc565b5f604051808303815f875af1158015611578573d5f5f3e3d5ffd5b505050506040513d5f823e3d601f19601f820116820180604052508101906115a0919061344a565b505050505050505050505050919050565b5f815f90816115c0919061315d565b50309050919050565b5f80546115d590612ea7565b80601f016020809104026020016040519081016040528092919081815260200182805461160190612ea7565b801561164c5780601f106116235761010080835404028352916020019161164c565b820191905f5260205f20905b81548152906001019060200180831161162f57829003601f168201915b505050505081565b5f81600190816116649190613896565b50309050919050565b60605f6040518060400160405280601081526020017f303132333435363738396162636465660000000000000000000000000000000081525090505f600284516116b79190613965565b60026116c39190613259565b67ffffffffffffffff8111156116dc576116db6127d7565b5b6040519080825280601f01601f19166020018201604052801561170e5781602001600182028036833780820191505090505b5090507f3000000000000000000000000000000000000000000000000000000000000000815f815181106117455761174461328c565b5b60200101907effffffffffffffffffffffffffffffffffffffffffffffffffffffffffffff191690815f1a9053507f7800000000000000000000000000000000000000000000000000000000000000816001815181106117a8576117a761328c565b5b60200101907effffffffffffffffffffffffffffffffffffffffffffffffffffffffffffff191690815f1a9053505f5f90505b8451811015611951578260048683815181106117fa576117f961328c565b5b602001015160f81c60f81b7effffffffffffffffffffffffffffffffffffffffffffffffffffffffffffff1916901c60f81c60ff16815181106118405761183f61328c565b5b602001015160f81c60f81b826002836118599190613965565b60026118659190613259565b815181106118765761187561328c565b5b60200101907effffffffffffffffffffffffffffffffffffffffffffffffffffffffffffff191690815f1a90535082600f60f81b8683815181106118bd576118bc61328c565b5b602001015160f81c60f81b1660f81c60ff16815181106118e0576118df61328c565b5b602001015160f81c60f81b826002836118f99190613965565b60036119059190613259565b815181106119165761191561328c565b5b60200101907effffffffffffffffffffffffffffffffffffffffffffffffffffffffffffff191690815f1a90535080806001019150506117db565b508092505050919050565b7f885cb69240a935d632d79c317109709ecfa91a80626ff3989d68f67f5b1dd12d5f1c60601b60601c81565b60025481565b6001805461199b90612ea7565b80601f01602080910402602001604051908101604052809291908181526020018280546119c790612ea7565b8015611a125780601f106119e957610100808354040283529160200191611a12565b820191905f5260205f20905b8154815290600101906020018083116119f557829003601f168201915b505050505081565b60048054611a2790612ea7565b80601f0160208091040260200160405190810160405280929190818152602001828054611a5390612ea7565b8015611a9e5780601f10611a7557610100808354040283529160200191611a9e565b820191905f5260205f20905b815481529060010190602001808311611a8157829003601f168201915b505050505081565b5f60056040518060400160405280858152602001611ae285604051602001611ace91906139c6565b60405160208183030381529060405261166d565b815250908060018154018082558091505060019003905f5260205f2090600202015f909190919091505f820151815f019081611b1e919061315d565b506020820151816001019081611b34919061315d565b50505030905092915050565b5f60056040518060400160405280858152602001611b7c85604051602001611b689190613a25565b60405160208183030381529060405261166d565b815250908060018154018082558091505060019003905f5260205f2090600202015f909190919091505f820151815f019081611bb8919061315d565b506020820151816001019081611bce919061315d565b50505030905092915050565b5f81600281905550309050919050565b5f6005604051806040016040528085815260200184815250908060018154018082558091505060019003905f5260205f2090600202015f909190919091505f820151815f019081611c3b919061315d565b506020820151816001019081611c51919061315d565b50505030905092915050565b5f8160035f6101000a81548173ffffffffffffffffffffffffffffffffffffffff021916908373ffffffffffffffffffffffffffffffffffffffff160217905550309050919050565b5f600167ffffffffffffffff811115611cc257611cc16127d7565b5b604051908082528060200260200182016040528015611cf557816020015b6060815260200190600190039081611ce05790505b5090506040518060600160405280602a8152602001613ea0602a9139815f81518110611d2457611d2361328c565b5b60200260200101819052505f7f885cb69240a935d632d79c317109709ecfa91a80626ff3989d68f67f5b1dd12d5f1c60601b60601c73ffffffffffffffffffffffffffffffffffffffff166389160467836040518263ffffffff1660e01b8152600401611d9191906133bc565b5f604051808303815f875af1158015611dac573d5f5f3e3d5ffd5b505050506040513d5f823e3d601f19601f82011682018060405250810190611dd4919061344a565b90505f815f81518110611dea57611de961328c565b5b602001015160f81c60f81b7effffffffffffffffffffffffffffffffffffffffffffffffffffffffffffff191690505f7f010000000000000000000000000000000000000000000000000000000000000077ffffffffffffffffffffffffffffffffffffffffffffffff19168277ffffffffffffffffffffffffffffffffffffffffffffffff191614905080611eb5576040517f08c379a0000000000000000000000000000000000000000000000000000000008152600401611eac90613ad5565b60405180910390fd5b50505050565b5f5f611ec683610750565b90505f600360149054906101000a900460ff1615611f62577f885cb69240a935d632d79c317109709ecfa91a80626ff3989d68f67f5b1dd12d5f1c60601b60601c73ffffffffffffffffffffffffffffffffffffffff1663afc980406040518163ffffffff1660e01b81526004015f604051808303815f87803b158015611f4b575f5ffd5b505af1158015611f5d573d5f5f3e3d5ffd5b505050505b60025482516020840182f09150505f73ffffffffffffffffffffffffffffffffffffffff168173ffffffffffffffffffffffffffffffffffffffff1603611fde576040517f08c379a0000000000000000000000000000000000000000000000000000000008152600401611fd590613b63565b60405180910390fd5b8092505050919050565b60035f9054906101000a900473ffffffffffffffffffffffffffffffffffffffff1681565b60605f60046040516020016120229190613b81565b60405160208183030381529060405261203a906134b4565b90505f5f1b8103612083576040518060400160405280600881526020017f7368616e67686169000000000000000000000000000000000000000000000000815250915050612110565b6004805461209090612ea7565b80601f01602080910402602001604051908101604052809291908181526020018280546120bc90612ea7565b80156121075780601f106120de57610100808354040283529160200191612107565b820191905f5260205f20905b8154815290600101906020018083116120ea57829003601f168201915b50505050509150505b90565b5f81600360146101000a81548160ff021916908315150217905550309050919050565b5f600560405180604001604052808581526020016121728560405160200161215e9190613bb7565b60405160208183030381529060405261166d565b815250908060018154018082558091505060019003905f5260205f2090600202015f909190919091505f820151815f0190816121ae919061315d565b5060208201518160010190816121c4919061315d565b50505030905092915050565b600360149054906101000a900460ff1681565b6121eb6126a3565b5f60208301905060405180604001604052808451815260200182815250915050919050565b5f5f825f0151612230855f01518660200151865f015187602001516123e1565b61223a9190613259565b90505b835f015184602001516122509190613259565b81116122a957818061226190613bd1565b925050825f015161229885602001518361227b91906135d4565b865f015161228991906135d4565b83865f015187602001516123e1565b6122a29190613259565b905061223d565b5092915050565b6122b86126a3565b6122c3838383612520565b5092915050565b60605f825f015167ffffffffffffffff8111156122ea576122e96127d7565b5b6040519080825280601f01601f19166020018201604052801561231c5781602001600182028036833780820191505090505b5090505f602082019050612338818560200151865f01516125df565b8192505050919050565b6060805f5f90505b602060ff168110156123d757816061601a86846020811061236e5761236d61328c565b5b1a60f81b60f81c61237f9190613c51565b6123899190613c81565b6040516020016123999190613ce9565b6040516020818303038152906040526040516020016123b9929190613d03565b6040516020818303038152906040529150808060010191505061234a565b5080915050919050565b5f5f8490505f86851161250757602085116124ad575f5f86111561243657600186602061240e91906135d4565b600861241a9190613965565b60026124269190613e55565b61243091906135d4565b195f1b90505b5f8186511690505f878a8a61244b9190613259565b61245591906135d4565b90505f8386511690505b82811461249f57818610612486578a8a6124799190613259565b9650505050505050612518565b858061249190613bd1565b96505083865116905061245f565b859650505050505050612518565b5f85852090505f91505b85886124c391906135d4565b8211612505575f86842090508082036124e25783945050505050612518565b6001846124ef9190613259565b93505081806124fd90613bd1565b9250506124b7565b505b86866125139190613259565b925050505b949350505050565b6125286126a3565b5f612543855f01518660200151865f015187602001516123e1565b9050846020015183602001818152505084602001518161256391906135d4565b835f018181525050845f0151856020015161257e9190613259565b8103612592575f855f0181815250506125d4565b835f0151835f01516125a49190613259565b855f018181516125b491906135d4565b91508181525050835f0151816125ca9190613259565b8560200181815250505b829150509392505050565b5b6020811061261e57815183526020836125f99190613259565b92506020826126089190613259565b915060208161261791906135d4565b90506125e0565b5f7fffffffffffffffffffffffffffffffffffffffffffffffffffffffffffffffff90505f82111561267357600182602061265991906135d4565b6101006126669190613e55565b61267091906135d4565b90505b8019835116818551168181178652505050505050565b604051806040016040528060608152602001606081525090565b60405180604001604052805f81526020015f81525090565b5f604051905090565b5f5ffd5b5f5ffd5b5f819050919050565b6126de816126cc565b81146126e8575f5ffd5b50565b5f813590506126f9816126d5565b92915050565b5f60208284031215612714576127136126c4565b5b5f612721848285016126eb565b91505092915050565b5f81519050919050565b5f82825260208201905092915050565b8281835e5f83830152505050565b5f601f19601f8301169050919050565b5f61276c8261272a565b6127768185612734565b9350612786818560208601612744565b61278f81612752565b840191505092915050565b5f6040820190508181035f8301526127b28185612762565b905081810360208301526127c68184612762565b90509392505050565b5f5ffd5b5f5ffd5b7f4e487b71000000000000000000000000000000000000000000000000000000005f52604160045260245ffd5b61280d82612752565b810181811067ffffffffffffffff8211171561282c5761282b6127d7565b5b80604052505050565b5f61283e6126bb565b905061284a8282612804565b919050565b5f67ffffffffffffffff821115612869576128686127d7565b5b61287282612752565b9050602081019050919050565b828183375f83830152505050565b5f61289f61289a8461284f565b612835565b9050828152602081018484840111156128bb576128ba6127d3565b5b6128c684828561287f565b509392505050565b5f82601f8301126128e2576128e16127cf565b5b81356128f284826020860161288d565b91505092915050565b5f602082840312156129105761290f6126c4565b5b5f82013567ffffffffffffffff81111561292d5761292c6126c8565b5b612939848285016128ce565b91505092915050565b5f81519050919050565b5f82825260208201905092915050565b5f61296682612942565b612970818561294c565b9350612980818560208601612744565b61298981612752565b840191505092915050565b5f6020820190508181035f8301526129ac818461295c565b905092915050565b5f73ffffffffffffffffffffffffffffffffffffffff82169050919050565b5f819050919050565b5f6129f66129f16129ec846129b4565b6129d3565b6129b4565b9050919050565b5f612a07826129dc565b9050919050565b5f612a18826129fd565b9050919050565b612a2881612a0e565b82525050565b5f602082019050612a415f830184612a1f565b92915050565b5f6020820190508181035f830152612a5f8184612762565b905092915050565b5f67ffffffffffffffff821115612a8157612a806127d7565b5b612a8a82612752565b9050602081019050919050565b5f612aa9612aa484612a67565b612835565b905082815260208101848484011115612ac557612ac46127d3565b5b612ad084828561287f565b509392505050565b5f82601f830112612aec57612aeb6127cf565b5b8135612afc848260208601612a97565b91505092915050565b5f60208284031215612b1a57612b196126c4565b5b5f82013567ffffffffffffffff811115612b3757612b366126c8565b5b612b4384828501612ad8565b91505092915050565b5f612b56826129fd565b9050919050565b612b6681612b4c565b82525050565b5f602082019050612b7f5f830184612b5d565b92915050565b612b8e816126cc565b82525050565b5f602082019050612ba75f830184612b85565b92915050565b5f5f60408385031215612bc357612bc26126c4565b5b5f83013567ffffffffffffffff811115612be057612bdf6126c8565b5b612bec858286016128ce565b9250506020612bfd858286016126eb565b9150509250929050565b5f612c11826129b4565b9050919050565b612c2181612c07565b8114612c2b575f5ffd5b50565b5f81359050612c3c81612c18565b92915050565b5f5f60408385031215612c5857612c576126c4565b5b5f83013567ffffffffffffffff811115612c7557612c746126c8565b5b612c81858286016128ce565b9250506020612c9285828601612c2e565b9150509250929050565b5f5f60408385031215612cb257612cb16126c4565b5b5f83013567ffffffffffffffff811115612ccf57612cce6126c8565b5b612cdb858286016128ce565b925050602083013567ffffffffffffffff811115612cfc57612cfb6126c8565b5b612d08858286016128ce565b9150509250929050565b5f60208284031215612d2757612d266126c4565b5b5f612d3484828501612c2e565b91505092915050565b612d4681612c07565b82525050565b5f602082019050612d5f5f830184612d3d565b92915050565b5f8115159050919050565b612d7981612d65565b8114612d83575f5ffd5b50565b5f81359050612d9481612d70565b92915050565b5f60208284031215612daf57612dae6126c4565b5b5f612dbc84828501612d86565b91505092915050565b5f819050919050565b612dd781612dc5565b8114612de1575f5ffd5b50565b5f81359050612df281612dce565b92915050565b5f5f60408385031215612e0e57612e0d6126c4565b5b5f83013567ffffffffffffffff811115612e2b57612e2a6126c8565b5b612e37858286016128ce565b9250506020612e4885828601612de4565b9150509250929050565b612e5b81612d65565b82525050565b5f602082019050612e745f830184612e52565b92915050565b7f4e487b71000000000000000000000000000000000000000000000000000000005f52602260045260245ffd5b5f6002820490506001821680612ebe57607f821691505b602082108103612ed157612ed0612e7a565b5b50919050565b5f81905092915050565b5f612eeb82612942565b612ef58185612ed7565b9350612f05818560208601612744565b80840191505092915050565b5f819050815f5260205f209050919050565b5f8154612f2f81612ea7565b612f398186612ed7565b9450600182165f8114612f535760018114612f6857612f9a565b60ff1983168652811515820286019350612f9a565b612f7185612f11565b5f5b83811015612f9257815481890152600182019150602081019050612f73565b838801955050505b50505092915050565b5f612fae8285612ee1565b9150612fba8284612f23565b91508190509392505050565b5f819050815f5260205f209050919050565b5f6020601f8301049050919050565b5f82821b905092915050565b5f600883026130227fffffffffffffffffffffffffffffffffffffffffffffffffffffffffffffffff82612fe7565b61302c8683612fe7565b95508019841693508086168417925050509392505050565b5f61305e613059613054846126cc565b6129d3565b6126cc565b9050919050565b5f819050919050565b61307783613044565b61308b61308382613065565b848454612ff3565b825550505050565b5f5f905090565b6130a2613093565b6130ad81848461306e565b505050565b5b818110156130d0576130c55f8261309a565b6001810190506130b3565b5050565b601f821115613115576130e681612fc6565b6130ef84612fd8565b810160208510156130fe578190505b61311261310a85612fd8565b8301826130b2565b50505b505050565b5f82821c905092915050565b5f6131355f198460080261311a565b1980831691505092915050565b5f61314d8383613126565b9150826002028217905092915050565b6131668261272a565b67ffffffffffffffff81111561317f5761317e6127d7565b5b6131898254612ea7565b6131948282856130d4565b5f60209050601f8311600181146131c5575f84156131b3578287015190505b6131bd8582613142565b865550613224565b601f1984166131d386612fc6565b5f5b828110156131fa578489015182556001820191506020850194506020810190506131d5565b868310156132175784890151613213601f891682613126565b8355505b6001600288020188555050505b505050505050565b7f4e487b71000000000000000000000000000000000000000000000000000000005f52601160045260245ffd5b5f613263826126cc565b915061326e836126cc565b92508282019050808211156132865761328561322c565b5b92915050565b7f4e487b71000000000000000000000000000000000000000000000000000000005f52603260045260245ffd5b5f81519050919050565b5f82825260208201905092915050565b5f819050602082019050919050565b5f82825260208201905092915050565b5f6132fc8261272a565b61330681856132e2565b9350613316818560208601612744565b61331f81612752565b840191505092915050565b5f61333583836132f2565b905092915050565b5f602082019050919050565b5f613353826132b9565b61335d81856132c3565b93508360208202850161336f856132d3565b805f5b858110156133aa578484038952815161338b858261332a565b94506133968361333d565b925060208a01995050600181019050613372565b50829750879550505050505092915050565b5f6020820190508181035f8301526133d48184613349565b905092915050565b5f6133ee6133e984612a67565b612835565b90508281526020810184848401111561340a576134096127d3565b5b613415848285612744565b509392505050565b5f82601f830112613431576134306127cf565b5b81516134418482602086016133dc565b91505092915050565b5f6020828403121561345f5761345e6126c4565b5b5f82015167ffffffffffffffff81111561347c5761347b6126c8565b5b6134888482850161341d565b91505092915050565b5f819050602082019050919050565b5f6134ab8251612dc5565b80915050919050565b5f6134be82612942565b826134c884613491565b90506134d3816134a0565b925060208210156135135761350e7fffffffffffffffffffffffffffffffffffffffffffffffffffffffffffffffff83602003600802612fe7565b831692505b5050919050565b61352381612dc5565b82525050565b5f60208201905061353c5f83018461351a565b92915050565b7f5f5f54454d505f5f000000000000000000000000000000000000000000000000815250565b5f81905092915050565b5f61357c8261272a565b6135868185613568565b9350613596818560208601612744565b80840191505092915050565b5f6135ac82613542565b6008820191506135bc8285613572565b91506135c88284613572565b91508190509392505050565b5f6135de826126cc565b91506135e9836126cc565b92508282039050818111156136015761360061322c565b5b92915050565b7f2f00000000000000000000000000000000000000000000000000000000000000815250565b5f6136388285613572565b915061364382613607565b6001820191506136538284613572565b91508190509392505050565b5f61366a8286613572565b915061367582613607565b60018201915061368482613542565b6008820191506136948285613572565b91506136a08284613572565b9150819050949350505050565b7f7372632f00000000000000000000000000000000000000000000000000000000815250565b7f2e68756666000000000000000000000000000000000000000000000000000000815250565b5f613703826136ad565b6004820191506137138284613572565b915061371e826136d3565b60058201915081905092915050565b5f815461373981612ea7565b6137438186613568565b9450600182165f811461375d5760018114613772576137a4565b60ff19831686528115158202860193506137a4565b61377b85612fc6565b5f5b8381101561379c5781548189015260018201915060208101905061377d565b838801955050505b50505092915050565b7f0a00000000000000000000000000000000000000000000000000000000000000815250565b5f6137de828461372d565b91506137e9826137ad565b60018201915081905092915050565b7f3d00000000000000000000000000000000000000000000000000000000000000815250565b5f6138298285613572565b9150613834826137f8565b6001820191506138448284613572565b91508190509392505050565b601f8211156138915761386281612f11565b61386b84612fd8565b8101602085101561387a578190505b61388e61388685612fd8565b8301826130b2565b50505b505050565b61389f82612942565b67ffffffffffffffff8111156138b8576138b76127d7565b5b6138c28254612ea7565b6138cd828285613850565b5f60209050601f8311600181146138fe575f84156138ec578287015190505b6138f68582613142565b86555061395d565b601f19841661390c86612f11565b5f5b828110156139335784890151825560018201915060208501945060208101905061390e565b86831015613950578489015161394c601f891682613126565b8355505b6001600288020188555050505b505050505050565b5f61396f826126cc565b915061397a836126cc565b9250828202613988816126cc565b9150828204841483151761399f5761399e61322c565b5b5092915050565b5f819050919050565b6139c06139bb826126cc565b6139a6565b82525050565b5f6139d182846139af565b60208201915081905092915050565b5f8160601b9050919050565b5f6139f6826139e0565b9050919050565b5f613a07826139ec565b9050919050565b613a1f613a1a82612c07565b6139fd565b82525050565b5f613a308284613a0e565b60148201915081905092915050565b7f496e76616c69642068756666632062696e6172792e2052756e20606375726c205f8201527f2d4c206765742e687566662e7368207c20626173686020616e6420606875666660208201527f75706020746f206669782e000000000000000000000000000000000000000000604082015250565b5f613abf604b83612734565b9150613aca82613a3f565b606082019050919050565b5f6020820190508181035f830152613aec81613ab3565b9050919050565b7f487566664465706c6f79657220636f756c64206e6f74206465706c6f7920636f5f8201527f6e74726163740000000000000000000000000000000000000000000000000000602082015250565b5f613b4d602683612734565b9150613b5882613af3565b604082019050919050565b5f6020820190508181035f830152613b7a81613b41565b9050919050565b5f613b8c828461372d565b915081905092915050565b5f819050919050565b613bb1613bac82612dc5565b613b97565b82525050565b5f613bc28284613ba0565b60208201915081905092915050565b5f613bdb826126cc565b91507fffffffffffffffffffffffffffffffffffffffffffffffffffffffffffffffff8203613c0d57613c0c61322c565b5b600182019050919050565b5f60ff82169050919050565b7f4e487b71000000000000000000000000000000000000000000000000000000005f52601260045260245ffd5b5f613c5b82613c18565b9150613c6683613c18565b925082613c7657613c75613c24565b5b828206905092915050565b5f613c8b82613c18565b9150613c9683613c18565b9250828201905060ff811115613caf57613cae61322c565b5b92915050565b5f8160f81b9050919050565b5f613ccb82613cb5565b9050919050565b613ce3613cde82613c18565b613cc1565b82525050565b5f613cf48284613cd2565b60018201915081905092915050565b5f613d0e8285613572565b9150613d1a8284613572565b91508190509392505050565b5f8160011c9050919050565b5f5f8291508390505b6001851115613d7b57808604811115613d5757613d5661322c565b5b6001851615613d665780820291505b8081029050613d7485613d26565b9450613d3b565b94509492505050565b5f82613d935760019050613e4e565b81613da0575f9050613e4e565b8160018114613db65760028114613dc057613def565b6001915050613e4e565b60ff841115613dd257613dd161322c565b5b8360020a915084821115613de957613de861322c565b5b50613e4e565b5060208310610133831016604e8410600b8410161715613e245782820a905083811115613e1f57613e1e61322c565b5b613e4e565b613e318484846001613d32565b92509050818404811115613e4857613e4761322c565b5b81810290505b9392505050565b5f613e5f826126cc565b9150613e6a836126cc565b9250613e977fffffffffffffffffffffffffffffffffffffffffffffffffffffffffffffffff8484613d84565b90509291505056fe2e2f6c69622f666f756e6472792d687566662f736372697074732f62696e6172795f636865636b2e73682e2f6c69622f666f756e6472792d687566662f736372697074732f66696c655f7772697465722e73682e2f6c69622f666f756e6472792d687566662f736372697074732f726561645f616e645f617070656e642e73682e2f6c69622f666f756e6472792d687566662f736372697074732f72616e645f62797465732e7368a26469706673582212207af4fa5fb788357c1870cc756f232cb15cd8ff52215c4dd151c933931318377464736f6c634300081f0033","linkReferences":{}},"methodIdentifiers":{"args()":"4e9b75b6","binary_check()":"c5effd02","bytesToString(bytes)":"39614e4f","code()":"24c12bf6","const_overrides(uint256)":"0c7d1681","creation_code(string)":"220481ef","creation_code_with_args(string)":"0cc76616","deploy(string)":"c7602316","deployer()":"d5f39488","evm_version()":"68f192f2","get_evm_version()":"dd1ec824","set_broadcast(bool)":"df9f3dee","should_broadcast()":"e9e68e1d","value()":"3fa4f245","vm()":"3a768463","with_addr_constant(string,address)":"6fcef9d5","with_args(bytes)":"28764d14","with_bytes32_constant(string,bytes32)":"e5df3076","with_code(string)":"2232d908","with_constant(string,string)":"8093a1b9","with_deployer(address)":"92bb10d7","with_evm_version(string)":"1a8f1a1c","with_uint_constant(string,uint256)":"6b07af10","with_value(uint256)":"7dc2225f"},"id":21}