{"abi":[{"type":"function","name":"allowance","inputs":[{"name":"owner","type":"address","internalType":"address"},{"name":"spender","type":"address","internalType":"address"}],"outputs":[{"name":"","type":"uint256","internalType":"uint256"}],"stateMutability":"view"},{"type":"function","name":"approve","inputs":[{"name":"spender","type":"address","internalType":"address"},{"name":"amount","type":"uint256","internalType":"uint256"}],"outputs":[{"name":"","type":"bool","internalType":"bool"}],"stateMutability":"nonpayable"},{"type":"function","name":"balanceOf","inputs":[{"name":"account","type":"address","internalType":"address"}],"outputs":[{"name":"","type":"uint256","internalType":"uint256"}],"stateMutability":"view"},{"type":"function","name":"decimals","inputs":[],"outputs":[{"name":"","type":"uint8","internalType":"uint8"}],"stateMutability":"pure"},{"type":"function","name":"flashFee","inputs":[{"name":"token","type":"address","internalType":"address"},{"name":"","type":"uint256","internalType":"uint256"}],"outputs":[{"name":"","type":"uint256","internalType":"uint256"}],"stateMutability":"view"},{"type":"function","name":"flashLoan","inputs":[{"name":"receiver","type":"address","internalType":"address"},{"name":"token","type":"address","internalType":"address"},{"name":"amount","type":"uint256","internalType":"uint256"},{"name":"data","type":"bytes","internalType":"bytes"}],"outputs":[{"name":"","type":"bool","internalType":"bool"}],"stateMutability":"nonpayable"},{"type":"function","name":"maxFlashLoan","inputs":[{"name":"token","type":"address","internalType":"address"}],"outputs":[{"name":"","type":"uint256","internalType":"uint256"}],"stateMutability":"view"},{"type":"function","name":"name","inputs":[],"outputs":[{"name":"","type":"string","internalType":"string"}],"stateMutability":"pure"},{"type":"function","name":"symbol","inputs":[],"outputs":[{"name":"","type":"string","internalType":"string"}],"stateMutability":"pure"},{"type":"function","name":"totalSupply","inputs":[],"outputs":[{"name":"","type":"uint256","internalType":"uint256"}],"stateMutability":"view"},{"type":"function","name":"transfer","inputs":[{"name":"to","type":"address","internalType":"address"},{"name":"amount","type":"uint256","internalType":"uint256"}],"outputs":[{"name":"","type":"bool","internalType":"bool"}],"stateMutability":"nonpayable"},{"type":"function","name":"transferFrom","inputs":[{"name":"from","type":"address","internalType":"address"},{"name":"to","type":"address","internalType":"address"},{"name":"amount","type":"uint256","internalType":"uint256"}],"outputs":[{"name":"","type":"bool","internalType":"bool"}],"stateMutability":"nonpayable"},{"type":"event","name":"Approval","inputs":[{"name":"owner","type":"address","indexed":true,"internalType":"address"},{"name":"spender","type":"address","indexed":true,"internalType":"address"},{"name":"value","type":"uint256","indexed":false,"internalType":"uint256"}],"anonymous":false},{"type":"event","name":"Transfer","inputs":[{"name":"from","type":"address","indexed":true,"internalType":"address"},{"name":"to","type":"address","indexed":true,"internalType":"address"},{"name":"value","type":"uint256","indexed":false,"internalType":"uint256"}],"anonymous":false}],"bytecode":{"object":"0x6080604052348015600e575f5ffd5b50610e768061001c5f395ff3fe608060405234801561000f575f5ffd5b50600436106100b2575f3560e01c8063613255ab1161006f578063613255ab146101a057806370a08231146101d057806395d89b4114610200578063a9059cbb1461021e578063d9d98ce41461024e578063dd62ed3e1461027e576100b2565b806306fdde03146100b6578063095ea7b3146100d457806318160ddd1461010457806323b872dd14610122578063313ce567146101525780635cffe9de14610170575b5f5ffd5b6100be6102ae565b6040516100cb91906109e8565b60405180910390f35b6100ee60048036038101906100e99190610a9d565b6102eb565b6040516100fb9190610af5565b60405180910390f35b61010c6103d8565b6040516101199190610b1d565b60405180910390f35b61013c60048036038101906101379190610b36565b6103e0565b6040516101499190610af5565b60405180910390f35b61015a61055e565b6040516101679190610ba1565b60405180910390f35b61018a60048036038101906101859190610c1b565b610566565b6040516101979190610af5565b60405180910390f35b6101ba60048036038101906101b59190610c9f565b610604565b6040516101c79190610b1d565b60405180910390f35b6101ea60048036038101906101e59190610c9f565b610667565b6040516101f79190610b1d565b60405180910390f35b6102086106ad565b60405161021591906109e8565b60405180910390f35b61023860048036038101906102339190610a9d565b6106ea565b6040516102459190610af5565b60405180910390f35b61026860048036038101906102639190610a9d565b610700565b6040516102759190610b1d565b60405180910390f35b61029860048036038101906102939190610cca565b610778565b6040516102a59190610b1d565b60405180910390f35b60606040518060400160405280600381526020017f4c49510000000000000000000000000000000000000000000000000000000000815250905090565b5f8160025f3373ffffffffffffffffffffffffffffffffffffffff1673ffffffffffffffffffffffffffffffffffffffff1681526020019081526020015f205f8573ffffffffffffffffffffffffffffffffffffffff1673ffffffffffffffffffffffffffffffffffffffff1681526020019081526020015f20819055508273ffffffffffffffffffffffffffffffffffffffff163373ffffffffffffffffffffffffffffffffffffffff167f8c5be1e5ebec7d5bd14f71427d1e84f3dd0314c0f7b2291e5b200ac8c7c3b925846040516103c69190610b1d565b60405180910390a36001905092915050565b5f5f54905090565b5f5f60025f8673ffffffffffffffffffffffffffffffffffffffff1673ffffffffffffffffffffffffffffffffffffffff1681526020019081526020015f205f3373ffffffffffffffffffffffffffffffffffffffff1673ffffffffffffffffffffffffffffffffffffffff1681526020019081526020015f205490507fffffffffffffffffffffffffffffffffffffffffffffffffffffffffffffffff811461054757828110156104c7576040517f08c379a00000000000000000000000000000000000000000000000000000000081526004016104be90610d52565b60405180910390fd5b82810360025f8773ffffffffffffffffffffffffffffffffffffffff1673ffffffffffffffffffffffffffffffffffffffff1681526020019081526020015f205f3373ffffffffffffffffffffffffffffffffffffffff1673ffffffffffffffffffffffffffffffffffffffff1681526020019081526020015f20819055505b6105528585856107fa565b60019150509392505050565b5f6006905090565b5f308514610572575f5ffd5b7f23e30c8b00000000000000000000000000000000000000000000000000000000608052336084523060a4528360c4525f60e45260a0610104528180610124528084610144378060c40160205f8260805f8c5af1806105cf575f5ffd5b7f439148f0bbc682ca079e46d6e2c2f0c1e3b820f1a291b069d8882abf8cf18dd95f51146105fb575f5ffd5b60015f5260205ff35b5f3073ffffffffffffffffffffffffffffffffffffffff168273ffffffffffffffffffffffffffffffffffffffff161461063e575f610660565b7fffffffffffffffffffffffffffffffffffffffffffffffffffffffffffffffff5b9050919050565b5f60015f8373ffffffffffffffffffffffffffffffffffffffff1673ffffffffffffffffffffffffffffffffffffffff1681526020019081526020015f20549050919050565b60606040518060400160405280600381526020017f4c49510000000000000000000000000000000000000000000000000000000000815250905090565b5f6106f63384846107fa565b6001905092915050565b5f3073ffffffffffffffffffffffffffffffffffffffff168373ffffffffffffffffffffffffffffffffffffffff161461076f576040517f08c379a000000000000000000000000000000000000000000000000000000000815260040161076690610dba565b60405180910390fd5b5f905092915050565b5f60025f8473ffffffffffffffffffffffffffffffffffffffff1673ffffffffffffffffffffffffffffffffffffffff1681526020019081526020015f205f8373ffffffffffffffffffffffffffffffffffffffff1673ffffffffffffffffffffffffffffffffffffffff1681526020019081526020015f2054905092915050565b8060015f8573ffffffffffffffffffffffffffffffffffffffff1673ffffffffffffffffffffffffffffffffffffffff1681526020019081526020015f2054101561087a576040517f08c379a000000000000000000000000000000000000000000000000000000000815260040161087190610e22565b60405180910390fd5b8060015f8573ffffffffffffffffffffffffffffffffffffffff1673ffffffffffffffffffffffffffffffffffffffff1681526020019081526020015f205f82825403925050819055508060015f8473ffffffffffffffffffffffffffffffffffffffff1673ffffffffffffffffffffffffffffffffffffffff1681526020019081526020015f205f82825401925050819055508173ffffffffffffffffffffffffffffffffffffffff168373ffffffffffffffffffffffffffffffffffffffff167fddf252ad1be2c89b69c2b068fc378daa952ba7f163c4a11628f55a4df523b3ef8360405161096b9190610b1d565b60405180910390a3505050565b5f81519050919050565b5f82825260208201905092915050565b8281835e5f83830152505050565b5f601f19601f8301169050919050565b5f6109ba82610978565b6109c48185610982565b93506109d4818560208601610992565b6109dd816109a0565b840191505092915050565b5f6020820190508181035f830152610a0081846109b0565b905092915050565b5f5ffd5b5f5ffd5b5f73ffffffffffffffffffffffffffffffffffffffff82169050919050565b5f610a3982610a10565b9050919050565b610a4981610a2f565b8114610a53575f5ffd5b50565b5f81359050610a6481610a40565b92915050565b5f819050919050565b610a7c81610a6a565b8114610a86575f5ffd5b50565b5f81359050610a9781610a73565b92915050565b5f5f60408385031215610ab357610ab2610a08565b5b5f610ac085828601610a56565b9250506020610ad185828601610a89565b9150509250929050565b5f8115159050919050565b610aef81610adb565b82525050565b5f602082019050610b085f830184610ae6565b92915050565b610b1781610a6a565b82525050565b5f602082019050610b305f830184610b0e565b92915050565b5f5f5f60608486031215610b4d57610b4c610a08565b5b5f610b5a86828701610a56565b9350506020610b6b86828701610a56565b9250506040610b7c86828701610a89565b9150509250925092565b5f60ff82169050919050565b610b9b81610b86565b82525050565b5f602082019050610bb45f830184610b92565b92915050565b5f5ffd5b5f5ffd5b5f5ffd5b5f5f83601f840112610bdb57610bda610bba565b5b8235905067ffffffffffffffff811115610bf857610bf7610bbe565b5b602083019150836001820283011115610c1457610c13610bc2565b5b9250929050565b5f5f5f5f5f60808688031215610c3457610c33610a08565b5b5f610c4188828901610a56565b9550506020610c5288828901610a56565b9450506040610c6388828901610a89565b935050606086013567ffffffffffffffff811115610c8457610c83610a0c565b5b610c9088828901610bc6565b92509250509295509295909350565b5f60208284031215610cb457610cb3610a08565b5b5f610cc184828501610a56565b91505092915050565b5f5f60408385031215610ce057610cdf610a08565b5b5f610ced85828601610a56565b9250506020610cfe85828601610a56565b9150509250929050565b7f616c6c6f77616e636500000000000000000000000000000000000000000000005f82015250565b5f610d3c600983610982565b9150610d4782610d08565b602082019050919050565b5f6020820190508181035f830152610d6981610d30565b9050919050565b7f746f6b656e0000000000000000000000000000000000000000000000000000005f82015250565b5f610da4600583610982565b9150610daf82610d70565b602082019050919050565b5f6020820190508181035f830152610dd181610d98565b9050919050565b7f62616c616e6365000000000000000000000000000000000000000000000000005f82015250565b5f610e0c600783610982565b9150610e1782610dd8565b602082019050919050565b5f6020820190508181035f830152610e3981610e00565b905091905056fea264697066735822122014a41930b6cb9e056ddebd265ef09a520d7e02b2283dc581aaf0fc93f642a1e764736f6c634300081f0033","linkReferences":{}},"methodIdentifiers":{"allowance(address,address)":"dd62ed3e","approve(address,uint256)":"095ea7b3","balanceOf(address)":"70a08231","decimals()":"313ce567","flashFee(address,uint256)":"d9d98ce4","flashLoan(address,address,uint256,bytes)":"5cffe9de","maxFlashLoan(address)":"613255ab","name()":"06fdde03","symbol()":"95d89b41","totalSupply()":"18160ddd","transfer(address,uint256)":"a9059cbb","transferFrom(address,address,uint256)":"23b872dd"},"id":25}